S02B0000417474696E79313631342044432050574D20535445505045522053756E6C6F61642073656E736F72E1
S11300000C943E020C9450020C9450020C94500236
S11300100C9450020C9450020C9450020C94500214
S11300200C9450020C9450020C9450020C94500204
S11300300C9450020C9450020C9450020C945002F4
S11300400C9450020C9450020C9450020C945002E4
S11300500C9450020C9450020C9450020C945002D4
S11300600C9450020C9450020C9450020C945002C4
S11300700C9450020C9450020C945002FFFFFFFFAA
S1130080FFFFFBFFFFFFFFFFFFFFFBFDFFFFFFFF86
S1130090FFFFFBFDFFFFFFFFFFFFFBFBFFFFFFFF7A
S11300A0FFFFFBFBFFFFFFFFFFFFFBF7FFFFFFFF70
S11300B0FFFFFBF7FFFFFFFFFFFFFDEFFFFFFFFF6A
S11300C0FFFFFDEFFFFFFFFFFFFFFDDFFFFFFFFF70
S11300D0FFFFFDDFFFFFFFFFFFFFFDBFFFFFFFFF90
S11300E0FFFFFDBFFFFFFFFFFFFFFD7FFFFFFFF0EF
S11300F01FFFFD7FFFFFFF0003FFFCFFFFFFFC006E
S1130100007FFCFFFFFFF800003FFDFFFFFFE00062
S1130110000FFDFFFFFFC00FE007F9FFFFFF803F67
S1130120F803FAFFFFFF00FFFE01F6FFFFFE03FFE7
S1130130FF80F6FFFFFC07FFFFC06EFFFFF80FFF15
S1130140FFE06EFFFFF81FFFFFF01EFFFFF03FFF11
S1130150FFF81EFFFFE03FFFFFF81EFFFFE07FFFF9
S1130160FFFC0EFFFFC0FFFFFFFE06FFFFC1FFFF06
S1130170FFFE06FFFF81FFFFFFFE02FFFF83FFFF7D
S1130180FFFE837FFF03FFFFFFFD817FFF07FFFF6C
S1130190FFFDC17FFE07FFFFFFFBC07FFE0FFFFFD8
S11301A0FFFBE07FFE0FFFFFFFF7E07FFC1FFFFF79
S11301B0FFF7E07FFC1FFFFFFFEFF07FFC1FFFFF57
S11301C0FFEFF07FF81FFFFFFFDFF03FF83FFFFF77
S11301D0FFDFF83FF83FFFFFFFBFF83FF03FFFFFAF
S11301E0FFBFF81FF07FFFFFFF7FFC1FF07FFFFFC3
S11301F0FF7FFC1FF07FFFFFFEFFFC1FF07FFFFF70
S1130200FEFFFC1FE0FFFFFFFDFFFC0FE0FFFFFF11
S1130210FDFFFE0FE0FFFFFFFBFFFE0FE0FFFFFF10
S1130220FBFFFE0FE0FFFFFFF7FFFE0FE0FFFFFF06
S1130230F7FFFE0FE1FFFFFFEFFFFE0FC1FFFFFF20
S1130240EFFFFF0FC1FFFFFFDFFFFF07C1FFFFFF4E
S1130250DFFFFF07C1FFFFFFBFFFFF07C1FFFFFF76
S1130260BFFFFF07C1FFFFFF7FFFFF07C1FFFFFFC6
S11302707FFFFF07C1FFFFFEFFFFFF07C1FFFFFE78
S1130280FFFFFF07C1FFFFFDFFFFFF07C1FFFFFDEA
S1130290FFFFFF07C1FFFFFBFFFFFF07C1FFFFFBDE
S11302A0FFFFFF07C1FFFFF7FFFFFF07C1FFFFF7D6
S11302B0FFFFFF07C1FFFFEFFFFFFF07C1FFFFEFD6
S11302C0FFFFFF0FC1FFFFDFFFFFFE0FE0FFFFDFB8
S11302D0FFFFFE0FE0FFFFBFFFFFFE0FE0FFFFBFCA
S11302E0FFFFFE0FE0FFFF7FFFFFFE0FE0FFFF7F3A
S11302F0FFFFFE0FE0FFFEFFFFFFFC0FF07FFEFF9E
S1130300FFFFFC0FF07FFDFFFFFFFC0FF07FFDFF01
S1130310FFFFFC0FF07FFBFFFFFFFC17F03FFBFF2D
S1130320FFFFF817F83FF7FFFFFFF837F83FF7FF35
S1130330FFFFF837F81FEFFFFFFFF037FC1FEFFF59
S1130340FFFFF077FC1FDFFFFFFFF077FC1FDFFFED
S1130350FFFFE077FE0FBFFFFFFFE0F7FE0FBFFFD9
S1130360FFFFE0F7FE077FFFFFFFC0F7FF077FFFF8
S1130370FFFFC1F7FF02FFFFFFFF81F7FF82FFFFCF
S1130380FFFF83FBFF81FFFFFFFF03FBFFC1FFFFB5
S1130390FFFE07FBFFC0FFFFFFFE07FBFFE07FFF41
S11303A0FFFC0FFBFFE07FFFFFF80FFBFFF03FFFB9
S11303B0FFF81FFBFFE81FFFFFF03FFBFFE80FFF05
S11303C0FFE07FFBFFDC07FFFFC07FFBFFDE03FFD7
S11303D0FF80FFFBFFBF00FFFE01FFFBFFBF807F2D
S11303E0FC03FFFDFF7FC00FE007FFFDFF7FE00080
S11303F0000FFFFDFEFFF800003FFFFDFEFFFC00C5
S1130400007FFFFDFDFFFF0001FFFFFDFDFFFFE09B
S11304100FFFFFFDFBFFFFFFFFFFFFFDFBFFFFFFE4
S1130420FFFFFFFDF7FFFFFFFFFFFFFDF7FFFFFFEC
S1130430FFFFFFFDEFFFFFFFFFFFFFFDEFFFFFFFEC
S1130440FFFFFFFDDFFFFFFFFFFFFFFEDFFFFFFFFB
S1130450FFFFFFFEBFFFFFFFFFFFFFFEBFFFFFFF2A
S1130460FFFFFFFE7FFFFFFFFFFFFFFE7FFFFFFF9A
S1130470FFFFFFFEFFFFFFFFFFFFFFFE11241FBE74
S1130480CFEFCDBFDFE3DEBF28E3A0E0B8E301C0D8
S11304901D92A130B207E1F70E9497020C94D70491
S11304A00C94000088ED84BF109261008091630079
S11304B080FDFCCF87E08093210488E080932204B0
S11304C08093300480933104809332048093330406
S11304D00895E0E1F8E0108282E0868383E183837B
S11304E081E085830895880F23E080931708909115
S11304F0150896FFFCCF9091150894FF08C0215071
S1130500A1F781E08093003883E08093140860931E
S113051018088091150886FFFCCF40931808809135
S1130520150886FFFCCF83E0809314080895CF93C9
S1130530DF93CDB7DEB7D450CDBFDEBF0E945202E9
S11305400E9469020E949E0480E00E948B0381E065
S11305500E948B0380E00E945E0481E00E945E049E
S113056020E040E062EB79E880E00E94050420E0AE
S113057040E062EB79E881E00E94050420E041E07C
S11305806AE37AE880E00E94050420E041E069E43F
S11305907AE881E00E94050420E042E066EC79E814
S11305A080E00E94050420E042E066EC79E881E006
S11305B00E94050420E043E065ED79E880E00E94B4
S11305C0050420E043E065ED79E881E00E9405043C
S11305D020E044E066EE79E880E00E94050420E033
S11305E044E066EE79E881E00E94050420E045E0FD
S11305F06AEF79E880E00E94050420E045E06AEFB4
S113060079E881E00E9405042FEF8AE197EB2150FD
S113061080409040E1F700C000004CE750E060E00B
S113062080E00E94B2034CE750E061E080E00E9469
S1130630B203EFEFFAE127EBE150F0402040E1F79D
S113064000C000002AE042E064E07AE880E00E9412
S113065005042AE042E064E07AE881E00E940504AF
S11306602AE043E063E17AE880E00E9405042AE09E
S113067043E063E17AE881E00E9405042AE044E073
S113068064E27AE880E00E9405042AE044E064E23F
S11306907AE881E00E9405042AE045E067E37AE80D
S11306A080E00E9405042AE045E066E47AE881E0FF
S11306B00E9405048FEF9AE1E7EB81509040E040FF
S11306C0E1F700C0000084E59AE80E94A9048E01C5
S11306D00F5F1F4FE12C84E0F82EF801C70111923F
S11306E00197E9F7C8010E94C604A80160E081E00F
S11306F00E94B2038CE59AE80E94A904C8010E94F2
S1130700C604A80161E081E00E94B2038CE59AE886
S11307100E94A904E2CF0F931F93CF93DF938130FC
S113072089F0C1E4DCE80AE51CE8499160E08CE367
S11307300E9473020C171D07C1F7DF91CF911F911F
S11307400F910895CAE5DCE8499160E08FE30E94C7
S113075073028CE8C436D807B9F7DF91CF911F91A3
S11307600F910895BF92CF92DF92EF92FF920F9371
S11307701F93CF93DF93B82E613009F444C01CE378
S11307806A0187E0C80ED11C7A01E9EFEE1AEBEF9B
S1130790FE0A00EB402F60E0812F0E94730240E0CC
S11307A060E0812F0E94730240E160E0812F0E948B
S11307B07302E601BB20E1F0488160E4812F0E94CE
S11307C073022896CE15DF05B9F70F5FF1E0CF1A53
S11307D0D10881E0E81AF108093BE1F6DF91CF91F5
S11307E01F910F91FF90EF90DF90CF90BF900895ED
S11307F0FE01449160E4812F0E9473022896EC1656
S1130800FD06B1F7E2CF1FE3BBCFCF92DF92EF92A9
S11308100F931F93CF93DF938B01C22F813009F481
S11308204AC05CE3E52E406B60E08E2D0E947302AB
S11308304C2F42954F70406160E08E2D0E947302F0
S11308404C2F4F7060E08E2D0E947302F801C0811E
S1130850CC2331F16801FFEFCF1ADF0A80EE8C0F51
S1130860803630F5D0E0A097CE01880F991F880F0D
S1130870991FC80FD91FCF59D54710E0499160E49B
S11308808E2D0E9473021F5F1530C1F740E060E4B3
S11308908E2D0E947302F601C1916F01C111DECF4A
S11308A0DF91CF911F910F91EF90DF90CF9008953A
S11308B0C0E0D0E0D9CF3FE3E32EB5CFFF920F9352
S11308C01F93CF93DF93F82E81E0F81631F11CE3E8
S11308D000EB402F60E0812F0E94730240E060E053
S11308E0812F0E94730240E160E0812F0E94730215
S11308F0C0E8D0E040E060E4812F0E9473022197B9
S1130900C9F70F5F083B29F781E0F81641F0DF9142
S1130910CF911F910F91FF9008951FE3D9CF41E824
S113092060E08FE30E94730240E260E08FE3DF91B6
S1130930CF911F910F91FF900C947302E0E0F8E0C7
S11309408DE790E08087918782EC868383E08783BC
S11309500895CF93DF93DC01EC0120E030E0FD014A
S113096001900020E9F73197EA1BFB0B2E173F0794
S113097050F489919091040895FFFCCF809302086C
S11309802F5F3F4FECCFDF91CF910895FC01AC0175
S11309905C5F20E8209304089091040897FFFCCF43
S11309A0809100088193E417F507A1F70895F8945E
S10509B0FFCF73
S11309B2546578742074657374206F6E2030206CD3
S11309C2696E6500616E6420616674657220746587
S11309D278740053746174696F6E61727920696D01
S11309E26167650066726F6D206120666C61736871
S11309F2206D656D6F7279007573696E672070671B
S1130A026D004E6F772077696C6C20737461727419
S1130A120073637265656E206D6972726F72696EBE
S1130A22670066726F6D205043207573696E67208C
S1130A3255415254006F6E204F4C454420736372EB
S1130A4265656E006F6E204C434420736372656566
S1130A526E0053544152540D0A004F4B0D0A0000CC
S1130A620000000000005F00000007000700147F80
S1130A72147F14242A7F2A122313086462364955E8
S1130A8222500005030000001C2241000041221CE8
S1130A920014083E081408083E08080050300000FC
S1130AA20808080808006060000020100804023EDC
S1130AB25149453E00427F4000426151494621412D
S1130AC2454B311814127F1027454545393C4A4994
S1130AD2493001710905033649494936064949290C
S1130AE21E0036360000005636000008142241006B
S1130AF21414141414004122140802015109063278
S1130B024979413E7E1111117E7F494949363E4160
S1130B124141227F4141221C7F494949417F0909C0
S1130B2209013E4149497A7F0808087F00417F4113
S1130B32002040413F017F081422417F4040404051
S1130B427F020C027F7F0408107F3E4141413E7FB9
S1130B52090909063E4151215E7F09192946464980
S1130B6249493101017F01013F4040403F1F20407C
S1130B72201F3F4038403F6314081463070870087D
S1130B82076151494543007F414100020408102096
S1130B920041417F00040201020440404040400001
S1130BA20307000020545454787F4844443838449E
S1130BB2444420384444487F3854545418087E0925
S1130BC20102081454543C7F0804047800447D4014
S1130BD2002040443D007F1028440000417F400033
S1130BE27C041804787C0804047838444444387C2F
S1130BF214141408081414187C7C080404084854B7
S1130C02545420043F4440203C4040207C1C20405B
S1130C12201C3C4030403C44281028440C50505086
S1130C223C4464544C44000836410000007F0000F8
S1130C32004136080008082A1C08081C2A0808AEC5
S1130C42A83FD300402000D9F1DB40A1C8DA1281C9
S1130C52FFA4A6D5F08D14AFE22FA2C8A04081054F
S1050C62A6AF37
S9030000FC
